:100000000C945C000C9479000C9479000C947900A9
:100010000C9479000C9479000C9479000C9479007C
:100020000C9479000C9479000C9479000C9479006C
:100030000C9479000C9456010C9479000C9479007E
:100040000C940C010C9479000C9479000C947900B8
:100050000C9479000C9479000C9479000C9479003C
:100060000C9479000C947900000000080002010053
:100070000003040700000000000000000000000072
:10008000250028002B0000000000240027002A0083
:10009000040404040404040402020202020203032E
:1000A0000303030301020408102040800102040836
:1000B000102001020408102011241FBECFEFD8E049
:1000C000DEBFCDBF12E0A0E0B1E0E8E1F6E002C0A3
:1000D00005900D92A231B107D9F722E0A2E1B2E07A
:1000E00001C01D92A834B207E1F70E947D010C9473
:1000F0000A030C94000090E0FC01EC55FF4F2491A2
:1001000080579F4FFC018491882399F090E0880FDD
:10011000991FFC01EA57FF4FA591B491FC01E458E7
:10012000FF4F859194918FB7F894EC91E22BEC936B
:100130008FBF089580913E0291E0892780933E020F
:10014000089590E0FC01E859FF4F2491FC01EC5523
:10015000FF4F3491FC01E057FF4FE491EE23C9F0CB
:10016000222339F0233001F1A8F4213019F1223093
:1001700029F1F0E0EE0FFF1FE458FF4FA591B49175
:100180008FB7F894EC91611126C030953E233C93D3
:100190008FBF08952730A9F02830C9F0243049F7DF
:1001A000809180008F7D03C0809180008F77809345
:1001B0008000DFCF84B58F7784BDDBCF84B58F7DA2
:1001C000FBCF8091B0008F778093B000D2CF809129
:1001D000B0008F7DF9CF3E2BDACF0F931F93CF93D3
:1001E000DF93082F162FD42FC8E06D2F661F6627C8
:1001F000661F802F0E94A100DD0F61E0812F0E9409
:10020000A10060E0812F0E94A100C15071F7DF9131
:10021000CF911F910F9108951F920F920FB60F92D9
:1002200011242F933F938F939F93AF93BF9380910C
:10023000440290914502A0914602B091470230914C
:10024000430223E0230F2D3758F50196A11DB11D60
:10025000209343028093440290934502A093460268
:10026000B093470280913F0290914002A0914102D9
:10027000B09142020196A11DB11D80933F0290935F
:100280004002A0934102B0934202BF91AF919F916F
:100290008F913F912F910F900FBE0F901F90189547
:1002A00026E8230F0296A11DB11DD2CF1F920F92F7
:1002B0000FB60F9211242F933F934F935F936F9339
:1002C0007F938F939F93AF93BF93EF93FF93E091AF
:1002D0001202F09113020995FF91EF91BF91AF9136
:1002E0009F918F917F916F915F914F913F912F914E
:1002F0000F900FBE0F901F901895789484B5826070
:1003000084BD84B5816084BD85B5826085BD85B5B9
:10031000816085BD80916E00816080936E00109237
:1003200081008091810082608093810080918100B2
:100330008160809381008091800081608093800043
:100340008091B10084608093B1008091B0008160A1
:100350008093B00080917A00846080937A008091CD
:100360007A00826080937A0080917A008160809325
:100370007A0080917A00806880937A001092C100A0
:100380008CE00E947B008DE00E947B008BE00E944D
:100390007B0086E00E947B0087E00E947B0085E076
:1003A0000E947B0080913A0290913B0220910001D3
:1003B000309101017091180260911902409116026A
:1003C00050911702AAE2B2E0E2E8F1E00AE312E09B
:1003D0000A171B0719F1EF0190E080E0E880F9802F
:1003E000EF2889F4009759F070E060E0220F331F86
:1003F0006F5F7F4F68177907C9F7782F692F420F12
:10040000531F21E030E0019660968830910531F766
:100410004D935D93329650E040E0DACF509317024F
:10042000409316024091140250911502AAE1B2E0E5
:10043000E2E0F1E0C2E0AA32BC0719F1EF0190E07E
:1004400080E008811981012B89F4009759F070E050
:1004500060E0220F331F6F5F7F4F68177907C9F77E
:10046000782F692F420F531F21E030E001966096EC
:100470008830910531F74D935D93329650E040E01E
:10048000D9CF90933B0280933A023093010120939D
:100490000001709318026093190250931502409363
:1004A000140280E1809381001092800082E19AE73B
:1004B000909387008093860084E1809381008AE98D
:1004C00090E0909313028093120281E080936F007A
:1004D00000E010E080913E0210923D0210923C023A
:1004E000882309F44EC0C0913C02D0913D02C8302F
:1004F000D1050CF088C010923B0210923A02CE0156
:10050000880F991FFC01EE5FFD4F5F019C01265D86
:100510003D4F6901E0903A02F0903B0235E0E3166E
:10052000F10424F560E08CE00E94A100F501408117
:100530006DE08BE00E94ED0061E08CE00E94A10084
:1005400060E086E00E94A100F601408167E085E05E
:100550000E94ED0061E086E00E94A100FFEFEF1A2B
:10056000FF0AF0923B02E0923A02D4CF2196D09358
:100570003D02C0933C02B7CF2196D0933D02C09379
:100580003C02C0913C02D0913D02C830D105DCF55F
:1005900010923B0210923A02CE01880F991F9C01E3
:1005A0002E5F3D4F5901FC01E65EFD4F6F01E0906B
:1005B0003A02F0903B02F5E0EF16F104ECF660E051
:1005C0008CE00E94A100F50140816DE08BE00E946B
:1005D000ED0061E08CE00E94A10060E086E00E94F6
:1005E000A100F601408167E085E00E94ED0061E036
:1005F00086E00E94A100FFEFEF1AFF0AF0923B0293
:10060000E0923A02D4CF0115110509F463CF0E949C
:08061000000060CFF894FFCF59
:1006180001000000000000000000000000000000D1
:1006280000000000010001000000000001000100BE
:1006380000000000010001000000000001000100AE
:1006480000000000000000000000000000000000A2
:10065800000000000000010001000100010000008E
:100668000000000001000000000000000000010080
:100678000000010000000000000000000000000071
:100688000100000000000000000000000000000061
:100698000000000000000000000000000000000052
:1006A800000000000100010000000000010001003E
:1006B800000000000100010000000000010001002E
:1006C8000000000000000000000000000000000022
:1006D8000000010000000000000000000000000011
:1006E80001000000010000000000000000000100FF
:1006F80000000000000001000100010001000000EE
:1007080000000000000000000000000000000000E1
:100718000000010002000400080010002000400052
:0207280080004F
:00000001FF
