:100000000C945E000C9486000C9486000C94860080
:100010000C9486000C9486000C9486000C94860048
:100020000C9486000C9486000C9486000C94860038
:100030000C9486000C9486000C9486000C94860028
:100040000C9425040C9486000C94F3030C94CD03BB
:100050000C9486000C9486000C9486000C94860008
:100060000C9486000C948600000000080002010039
:100070000003040700000000000000000000000072
:10008000250028002B0000000000240027002A0083
:10009000040404040404040402020202020203032E
:1000A0000303030301020408102040800102040836
:1000B00010200102040810206F04140711241FBE31
:1000C000CFEFD8E0DEBFCDBF23E0A2E3B3E001C0B5
:1000D0001D92A23EB207E1F713E0A0E0B1E0E6E72F
:1000E000F3E102C005900D92A233B107D9F710E0F9
:1000F000CDE5D0E004C02197FE010E94AD07CC35CC
:10010000D107C9F70E94AA040C94AE090C94000010
:1001100090E0FC01EC55FF4F249180579F4FFC016C
:100120008491882399F090E0880F991FFC01EA5789
:10013000FF4FA591B491FC01E458FF4F8591949134
:100140008FB7F894EC91E22BEC938FBF0895AF92A8
:10015000BF92CF92DF92EF92FF920F931F93CF93B4
:10016000DF936C017B018B01040F151FEB015E0116
:10017000AE18BF08C017D10759F06991D601ED91AB
:10018000FC910190F081E02DC6010995892B79F74A
:10019000C501DF91CF911F910F91FF90EF90DF90FC
:1001A000CF90BF90AF900895FC01538D448D252FC3
:1001B00030E0842F90E0821B930B541710F0CF9601
:1001C000089501970895FC01918D828D981761F033
:1001D000A28DAE0FBF2FB11D5D968C91928D9F5F4A
:1001E0009F73928F90E008958FEF9FEF08952FB740
:1001F000F8948091370390913803A0913903B0911E
:100200003A032FBF8093430390934403A093450385
:10021000B09346038BE393E00E94E30097FF26C070
:100220002FB7F8948091370390913803A091390348
:10023000B0913A032FBF4091430350914403609122
:10024000450370914603841B950BA60BB70B409199
:100250003F03509140036091410370914203841722
:100260009507A607B707B0F28FEF9FEF0895FC013F
:10027000918D828D981731F0828DE80FF11D858D5B
:1002800090E008958FEF9FEF0895FC01918D228DEE
:10029000892F90E0805C9F4F821B91098F73992773
:1002A00008958BE393E00E94450121E0892B09F436
:1002B00020E0822F089580E090E0892B29F00E94B1
:1002C000510181110C9400000895FC01A48DA80F28
:1002D000B92FB11DA35ABF4F2C91848D90E0019688
:1002E0008F739927848FA689B7892C93A089B189A8
:1002F0008C91837080648C93938D848D981306C049
:100300000288F389E02D80818F7D80830895EF92AC
:10031000FF920F931F93CF93DF93EC0181E0888FBF
:100320009B8D8C8D98131AC0E889F989808185FF8F
:1003300015C09FB7F894EE89FF896083E889F98931
:1003400080818370806480839FBF81E090E0DF9133
:10035000CF911F910F91FF90EF900895F62E0B8D86
:1003600010E00F5F1F4F0F731127E02E8C8D8E1141
:100370000CC00FB607FCFACFE889F989808185FFA8
:10038000F5CFCE010E946501F1CFEB8DEC0FFD2F73
:10039000F11DE35AFF4FF0829FB7F8940B8FEA8963
:1003A000FB8980818062CFCFCF93DF93EC01888D72
:1003B0008823B9F0AA89BB89E889F9898C9185FDE0
:1003C00003C0808186FD0DC00FB607FCF7CF8C916E
:1003D00085FFF2CF808185FFEDCFCE010E946501C0
:1003E000E9CFDF91CF91089590E0FC01E859FF4FEC
:1003F0002491FC01EC55FF4F3491FC01E057FF4F75
:10040000E491EE23C9F0222339F0233001F1A8F45E
:10041000213019F1223029F1F0E0EE0FFF1FE458EE
:10042000FF4FA591B4918FB7F894EC91611126C05C
:1004300030953E233C938FBF08952730A9F0283094
:10044000C9F0243049F7809180008F7D03C08091EE
:1004500080008F7780938000DFCF84B58F7784BD55
:10046000DBCF84B58F7DFBCF8091B0008F778093F9
:10047000B000D2CF8091B0008F7DF9CF3E2BDACF84
:100480001F93CF93DF93182FEB010E9488002097D2
:1004900039F460E0812FDF91CF911F910C94F4012A
:1004A000CF3FD10511F461E0F5CFE12FF0E0E8593D
:1004B000FF4FE491E33031F140F4E130B1F0E2304C
:1004C000E1F0C038D1057CF7E4CFE73029F1E8301E
:1004D00059F1E430B1F78091800080628093800010
:1004E000D0938B00C0938A0004C084B5806884BD1B
:1004F000C7BDDF91CF911F91089584B5806284BDFF
:10050000C8BDF7CF80918000806880938000D09331
:100510008900C0938800EDCF8091B00080688093FF
:10052000B000C093B300E5CF8091B00080628093AB
:10053000B000C093B400DDCF3FB7F894809133038F
:1005400090913403A0913503B091360326B5A89B52
:1005500005C02F3F19F00196A11DB11D3FBFBA2F55
:10056000A92F982F8827BC01CD01620F711D811D15
:10057000911D42E0660F771F881F991F4A95D1F79A
:1005800008958F929F92AF92BF92CF92DF92EF9297
:10059000FF924B015C010E949C026B017C010E9456
:1005A0009C026C197D098E099F09683E7340810584
:1005B0009105A8F321E0821A9108A108B10888EEFC
:1005C000C80E83E0D81EE11CF11C81149104A10423
:1005D000B10429F7FF90EF90DF90CF90BF90AF90DC
:1005E0009F908F900895FC0101900020E9F73197CA
:1005F000AF01481B590BBC018BE393E00C94A7009F
:10060000CF93DF930E94F302EC018CE191E00E9412
:10061000F3028C0F9D1FDF91CF9108952091DC0391
:100620003091DD03232B39F421E0FC018081882304
:1006300061F020E00AC0BC018091D8039091D903F9
:100640000E949E0921E0892BA1F7822F08950F9324
:100650001F93CF93DF93EC0188819981009759F024
:100660002A813B812617370730F081E0DF91CF9157
:100670001F910F9108958B016F5F7F4F0E94D808E3
:10068000009759F0998388831B830A832C813D81CD
:10069000232B59F7FC011082E8CF80E0E7CFCF93FE
:1006A000DF93EC0188819981009711F00E944F0837
:1006B000198218821D821C821B821A82DF91CF91BF
:1006C0000895EF92FF920F931F93CF93DF93EC0166
:1006D0007B018A01BA010E94270381110BC0CE0160
:1006E0000E944F03CE01DF91CF911F910F91FF9098
:1006F000EF9008951D830C83B701888199810E9432
:10070000A709F0CFEF92FF920F931F93CF93DF9340
:1007100000D0CDB7DEB78C01FC01118210821382AC
:1007200012821582148250E040E06EE171E00E9476
:1007300061030E94F70097FD1EC089831A82F801A9
:10074000E480F580FFEFEF1AFF0AB701C8010E94AD
:100750002703882371F3F8012081318184819581F9
:10076000BE016F5F7F4F820F931F0E94A709F801A0
:10077000F582E482DECFC8010F900F90DF91CF9118
:100780001F910F91FF90EF900895FC01808191815E
:10079000009711F00C944F0808951F920F920FB616
:1007A0000F9211242F933F934F935F936F937F93F7
:1007B0008F939F93AF93BF93EF93FF938BE393E05C
:1007C0000E946501FF91EF91BF91AF919F918F9131
:1007D0007F916F915F914F913F912F910F900FBE3D
:1007E0000F901F9018951F920F920FB60F92112421
:1007F0002F938F939F93EF93FF93E0914B03F0918F
:100800004C038081E0915103F091520382FD1BC0A3
:100810009081809154038F5F8F73209155038217CD
:1008200041F0E0915403F0E0E55CFC4F958F80933C
:100830005403FF91EF919F918F912F910F900FBED5
:100840000F901F9018958081F4CF1F920F920FB6D2
:100850000F9211242F933F938F939F93AF93BF9346
:100860008091370390913803A0913903B0913A03F6
:100870003091320323E0230F2D3758F50196A11D47
:10088000B11D209332038093370390933803A093D4
:100890003903B0933A038091330390913403A091CC
:1008A0003503B09136030196A11DB11D809333032A
:1008B00090933403A0933503B0933603BF91AF9167
:1008C0009F918F913F912F910F900FBE0F901F908E
:1008D000189526E8230F0296A11DB11DD2CFEBE398
:1008E000F3E01382128288EE93E0A0E0B0E084830C
:1008F0009583A683B7838EE091E09183808385EC16
:1009000090E09587848784EC90E09787868780ECD9
:1009100090E0918B808B81EC90E0938B828B82ECCA
:1009200090E0958B848B86EC90E0978B868B118E74
:10093000128E138E148EE8EDF3E011821082138272
:1009400012821582148250E040E06EE171E0CF0126
:100950000C946103CF93DF93CDB7DEB7A7970FB6A3
:10096000F894DEBF0FBECDBF789484B5826084BD9D
:1009700084B5816084BD85B5826085BD85B58160A3
:1009800085BD80916E00816080936E001092810021
:1009900080918100826080938100809181008160DC
:1009A000809381008091800081608093800080919D
:1009B000B10084608093B1008091B0008160809329
:1009C000B00080917A00846080937A0080917A00F0
:1009D000826080937A0080917A00816080937A00AF
:1009E00080917A00806880937A001092C10089E03B
:1009F0000E9488008AE00E94880084E00E948800AB
:100A000085E00E94880086E00E94880087E00E94BE
:100A10008800609102017091030189E00E94400208
:100A200060910001709101018AE00E94400268EC2F
:100A300070E080E090E00E94C102E0914B03F091F1
:100A40004C0382E08083E0914703F09148031082D9
:100A5000E0914903F0914A038FEC80831092530395
:100A6000E0914F03F091500386E08083E0914D03C5
:100A7000F0914E03808180618083E0914D03F0917D
:100A80004E03808188608083E0914D03F0914E0396
:100A9000808180688083E0914D03F0914E038081D6
:100AA0008F7D80838FE191E00E94000380E491E0DC
:100AB0000E9400038AE491E00E94000383E591E034
:100AC0000E9400038BE591E00E94000383E691E021
:100AD0000E9400038CE191E00E94F3028AE0482E1C
:100AE000512C612C712C90E0892E90E0992E0FEF03
:100AF00010E08BE393E00E944501892B09F461C06B
:100B0000CE0182960E9482031A8219821C821B8265
:100B10001E821D8250E040E06EE171E0CE01019640
:100B20000E946103CAA0DBA0C114D10409F455C01E
:100B3000EEA0FFA0E114F104B9F08D819E81E80ED2
:100B4000F91EB701CE0101960E942703882309F4FC
:100B500044C029813A818D819E81B601820F931F05
:100B60000E94A709FE82ED8269817A816115710573
:100B7000C9F14D815E8188ED93E00E946103CE0151
:100B800001960E94C503CE0182960E94C5038BE6A2
:100B900091E00E940E03882351F181E791E00E94C9
:100BA000000360E084E00E94F40161E085E00E94BF
:100BB000F40160E086E00E94F40161E087E00E94B9
:100BC000F4018114910409F494CF0E945101882307
:100BD00009F48FCF0E9400008CCFCE0101960E94B5
:100BE0004F03C2CF88ED93E00E944F03C8CF83EA42
:100BF00091E00E940E03882391F088EA91E00E9420
:100C0000000361E084E00E94F40160E085E00E945E
:100C1000F40161E086E00E94F40160E0CFCF89ED4D
:100C200091E00E940E03882339F18DED91E00E943E
:100C300000032091020130910301245131093093C6
:100C400003012093020180910001909101014496DB
:100C5000909301018093000137FF04C010920301BB
:100C6000109202018F3F910509F00CF4AACF109366
:100C7000010100930001A5CF8DE092E00E940E03D8
:100C8000882341F181E192E00E94000380910201FA
:100C90009091030144969093030180930201209167
:100CA0000001309101012451310937FD0EC030930C
:100CB0000101209300018F3F910509F00CF481CFD1
:100CC00010930301009302017CCF10920101109256
:100CD0000001F1CF82E492E00E940E03882309F420
:100CE00092C086E492E00E9400038AE692E00E94AD
:100CF000000368EE73E080E090E00E94C1028BE3A5
:100D000093E00E944501892BA1F3CE0101960E9438
:100D1000820389819A81C12CD12C7601009719F028
:100D20000E9418076B01CE0101960E94C503C601FF
:100D300001978E3F910508F061C0560189E992E064
:100D40000E94F3020D2C000CEE08FF08F7FE40C0D5
:100D50006DE28BE393E00E94870122273327A901EC
:100D60002C193D094E095F0919A2CE0181967C011B
:100D7000CA01B901A30192010E948B07605DF701CE
:100D800062937F01211531054105510589F7E11471
:100D9000F10419F0C7010E94F3028CE191E00E9476
:100DA000F302B0920301A0920201B0920101A0925D
:100DB0000001609102017091030189E00E944002EC
:100DC00060910001709101018AE00E944002F9CE19
:100DD000A701960119A2CE0181967C01CA01B90131
:100DE000A30192010E948B07605DF70162937F016E
:100DF000211531054105510589F7C9CF87EC92E0EE
:100E00000E940003D6CF4091DC035091DD03609136
:100E1000D8037091D9038BE393E00E94A70083E08D
:100E200093E00E940003CDCE88ED93E00C94C503BF
:100E30001F93FC0199278827BC01E8941191103277
:100E4000E9F3193010F01E30C8F31B3251F01D3297
:100E500049F4689406C00E943F07610F711D811D0F
:100E6000911D119110531A30B0F33EF49095809576
:100E7000709561957F4F8F4F9F4F1F910895592F08
:100E8000482F372F262F660F771F881F991F660F51
:100E9000771F881F991F620F731F841F951F660F8E
:100EA000771F881F991F08952F923F924F925F924C
:100EB0006F927F928F929F92AF92BF92CF92DF926A
:100EC000EF92FF920F931F93CF93DF93CDB7DEB7CF
:100ED000CA1BDB0B0FB6F894DEBF0FBECDBF099463
:100EE0002A88398848885F846E847D848C849B84BA
:100EF000AA84B984C884DF80EE80FD800C811B81C8
:100F0000AA81B981CE0FD11D0FB6F894DEBF0FBEF6
:100F1000CDBFED010895A1E21A2EAA1BBB1BFD0156
:100F20000DC0AA1FBB1FEE1FFF1FA217B307E407C8
:100F3000F50720F0A21BB30BE40BF50B661F771F20
:100F4000881F991F1A9469F7609570958095909500
:100F50009B01AC01BD01CF010895EE0FFF1F05906D
:100F6000F491E02D09940F931F93CF93DF93823078
:100F7000910510F482E090E0E091E003F091E1034C
:100F800030E020E0B0E0A0E0309799F42115310581
:100F900009F44AC0281B390B24303105D8F58A8161
:100FA0009B816115710589F1FB0193838283FE01A9
:100FB00011C0408151810281138148175907E0F027
:100FC0004817590799F4109761F012960C931297ED
:100FD00013961C933296CF01DF91CF911F910F9101
:100FE00008950093E0031093E103F4CF2115310538
:100FF00051F04217530738F0A901DB019A01BD01F6
:10100000DF01F801C1CFEF01F9CF9093E1038093A5
:10101000E003CDCFFE01E20FF31F819391932250A5
:10102000310939832883D7CF2091DE033091DF0344
:10103000232B41F420910601309107013093DF0307
:101040002093DE0320910401309105012115310523
:1010500041F42DB73EB74091080150910901241B7E
:10106000350BE091DE03F091DF03E217F307A0F404
:101070002E1B3F0B2817390778F0AC014E5F5F4FEE
:101080002417350748F04E0F5F1F5093DF0340933E
:10109000DE03819391939FCFF0E0E0E09CCFCF936C
:1010A000DF930097E9F0FC01329713821282A0913E
:1010B000E003B091E103ED0130E020E01097A1F4EE
:1010C00020813181820F931F2091DE033091DF0355
:1010D0002817390709F061C0F093DF03E093DE03BE
:1010E000DF91CF910895EA01CE17DF07E8F54A8135
:1010F0005B819E0141155105B1F7E901FB83EA834C
:1011000049915991C40FD51FEC17FD0761F48081F7
:1011100091810296840F951FE901998388838281CA
:1011200093819B838A83F0E0E0E012968D919C91FD
:1011300013970097B9F52D913C911197CD01029627
:10114000820F931F2091DE033091DF0328173907A8
:1011500039F6309751F51092E1031092E003B09305
:10116000DF03A093DE03BCCFD383C28340815181D0
:10117000840F951FC817D90761F44E5F5F4F8881B0
:101180009981480F591F518340838A819B819383A2
:1011900082832115310509F0B0CFF093E103E0938C
:1011A000E0039ECFFD01DC01C0CF13821282D7CFB6
:1011B000B0E0A0E0EEEDF8E00C9456078C0100974B
:1011C00051F4CB010E94B3078C01C801CDB7DEB743
:1011D000E0E10C947207FC01E60FF71F9C0122501E
:1011E0003109E217F30708F49DC0D901CD91DC91D4
:1011F0001197C617D70798F0C530D10530F3CE0147
:1012000004978617970708F3C61BD70B2297C1933D
:10121000D1936D937C93CF010E944F08D6CF5B0191
:10122000AC1ABD0A4C018C0E9D1EA091E003B0913A
:10123000E103512C412CF12CE12C109731F58091D8
:10124000DE039091DF038815990509F05CC046160E
:10125000570608F058C0809104019091050100974D
:1012600041F48DB79EB74091080150910901841B4C
:10127000950BE817F90708F055C0F093DF03E093EA
:10128000DE03F90171836083A0CF8D919C9111974A
:1012900012966C90129713967C901397A815B90527
:1012A00059F56C0142E0C40ED11CCA14DB0420F1D4
:1012B000AC014A195B09DA011296159780F0628237
:1012C000738251834083D9016D937C93E114F104BF
:1012D00071F0D7011396FC93EE93129776CF229676
:1012E0008C0F9D1FF90191838083F301EFCFF09361
:1012F000E103E093E00369CF4816590608F42C0196
:101300007D01D3019ACFCB010E94B3077C010097E6
:1013100049F0AE01B8010E949509C8010E944F082A
:10132000870153CF10E000E050CFFB01DC0102C089
:1013300001900D9241505040D8F70895FB01DC0117
:101340008D91019080190110D9F3990B0895FB013B
:10135000DC0101900D920020E1F7089510E0CDE549
:10136000D0E004C0FE010E94AD072196CE35D10722
:06137000C9F7F894FFCF5D
:101376003C003C000000E203800000000000870102
:10138600A700D400D4014501E30037010D0A005936
:101396006170696C6163616B2069736C656D20694E
:1013A60063696E206B6F6D75746C6172203A2000F4
:1013B60020312920496C6572690020322920476551
:1013C60072690020332920536F6C00203429205382
:1013D6006167002035292048697A00696C65726961
:1013E600004B6F6D757420416C67696C616E646942
:1013F600204D6F746F7220496C65726920596F6E4B
:101406006520486172656B657420456469796F7201
:101416002E2E0067657269004B6F6D757420416CE6
:1014260067696C616E6469204D6F746F72204765E1
:10143600726920596F6E6520486172656B6574200C
:10144600456469796F722E2E00736F6C004B6F6D59
:10145600757420416C67696C616E6469204D6F74A8
:101466006F7220536F6C20596F6E652048617265EC
:101476006B657420456469796F722E2E00736167FF
:10148600004B6F6D757420416C67696C616E6469A1
:10149600204D6F746F72205361672059C3B66E6515
:1014A60020486172656B657420456469796F722E98
:1014B6002E0068697A004B6F6D757420416C676900
:1014C6006C616E64692048697A2042656C69726C49
:1014D600656E69796F722E2E2E0042656C69726C8C
:1014E600656D656B2069737465646967696E697A91
:1014F6002068697A206465676572696E6920676924
:1015060072696E697A203A2000204D6F746F7220DE
:1015160068697A692062656C69726C656E64692CAB
:101526002079656E692068697A20646567657269E5
:101536006D697A203A200048697A2042656C6972A2
:101546006C656E656D6564692E20476972696C65A8
:101556006E20646567657220302D323535206172E4
:10156600616CC4B167C4B16E646120646567696CFF
:101576002E2100204B6F6D75747520416C67696C68
:10158600616E6D6164692C204C757466656E2054BD
:10159600656B7261722044656E6579696E697A2E33
:0215A6002E0015
:00000001FF
